:100000000C9472000C9493000C9493000C94930045
:100010000C9493000C9493000C9493000C94930014
:100020000C9493000C9493000C9493000C94930004
:100030000C9493000C9493000C9493000C949300F4
:100040000C9493000C9493000C9493000C949300E4
:100050000C9493000C9493000C9493000C949300D4
:100060000C9493000C9493000C9493000C949300C4
:100070000C9493000C9493000C9493000C949300B4
:100080000C9493000C9493000C9493000C949300A4
:100090000C9493000C9493000C9493000C94930094
:1000A0000C9493000C9493000C9493000C94930084
:1000B0000C9493000C9493000C9493000C94930074
:1000C0000C9493000C9493000C9493000C94930064
:1000D0000C9493000C9493000C9493000C94930054
:1000E0000C94930011241FBECFEFD1E2DEBFCDBF31
:1000F00000E00CBF12E0A0E0B2E0E8E3F4E000E0D2
:100100000BBF02C007900D92A839B107D9F722E0C2
:10011000A8E9B2E001C01D92AA39B207E1F70E9436
:10012000E9000C941A020C9400001F93CF93DF9304
:10013000182FD92FC62F8AE092E00E94E501812F67
:100140009D2F0E94E5018CE092E0C13091F085E1A5
:1001500092E0C23071F08FE192E0C33051F081E360
:1001600092E0C43031F08DE392E0C53011F087E4C5
:1001700092E0DF91CF911F910C94E501CF93DF9333
:10018000D42FC52F0E9495008D2F9C2FDF91CF91EA
:100190000C94E5010E94D4014DE552E061E084E752
:1001A00092E00C94BE001F93CF93DF93142FD52FB2
:1001B000C22F0E949500812F9D2F0E94E50185E9A5
:1001C00092E00E94E5018C2FDF91CF911F910C945A
:1001D000F8010E94CA0080E092E00E948C0168EB66
:1001E0007BE081E00E94AB016CED75E080E00E9455
:1001F000AB0168EE73E081E00E94AB0160ED77E057
:10020000F5CF2C9885E08A95F1F700002C9A089597
:1002100028980895289A0895CF93DF93EC010E94BF
:1002200008012D2F4FE752E063E085E892E00E943D
:10023000D300DEBD0DB407FEFDCF2C2F41E952E007
:1002400063E085E892E00E94D300CEBD0DB407FEC6
:10025000FDCFDF91CF910C940A01CF93DF93E09112
:100260009802F09199028281282F30E0322F2227C4
:100270003295330F307E9381892F90E0982F882715
:100280009295907F822B932BC681D0E0DC2FCC27D8
:10029000D295DD0FD07E278130E0322F2227329594
:1002A000307FC22BD32BD06860814481558120855B
:1002B000318561111EC0E4E0440F551FEA95E1F756
:1002C000842B952BF4E0220F331FFA95E1F7C22B14
:1002D000D32B0E940C01CE010E940C01E0919802E8
:1002E000F09199028181811114C0DF91CF910C941A
:1002F0000101613059F4440F551F440F551F842BE1
:10030000952B220F331F220F331FE1CF842B952B08
:10031000DECFDF91CF910895909399028093980258
:100320008CB581608CBD8CB580618CBD8CB58064D2
:100330008CBD209A289A249A2C9A229A2B9A219A38
:100340007894E0919802F09199028181811101C025
:100350002C980C942D019B01E0919802F091990248
:10036000882371F08281882331F036952795358373
:1003700024830C942D013695279536952795F7CF34
:100380008681882329F03695279531872087F1CFFC
:100390003695279536952795F8CF9091C00095FF13
:1003A000FCCF8093C60008951092C50087E6809325
:1003B000C400E0ECF0E080818D7F808388E1809351
:1003C000C10086E08093C20008951F93CF93DF930E
:1003D000EC0110E0FE01E10FF11D8081811104C0EC
:1003E000DF91CF911F9108950E94CD011F5FF2CF41
:1003F0000F931F93CF93DF930F92CDB7DEB789830F
:1004000007E010E0898190E0002E02C09595879565
:100410000A94E2F780FF0CC081E30E94CD010150F5
:10042000110980F70F90DF91CF911F910F910895DF
:0804300080E3F3CFF894FFCF45
:10043800010000010000000100000A002C20494EC4
:10044800464F3A20002C2044454255473A20002C7C
:1004580020564552424F53455F44454255473A203E
:10046800002C205741524E494E473A20002C204537
:1004780052524F523A20002C20494E56414C494482
:100488005F4C4F475F4C4556454C3A20004C6F67D0
:100498002073797374656D20696E697469616C691C
:1004A800736564006C6F675F73797374656D004D75
:1004B80053423A20004D4350343831325F4441436F
:0804C800004C53423A200000F1
:00000001FF
