:100000000C9472000C9493000C9493000C94930045
:100010000C9493000C9493000C9493000C94930014
:100020000C9493000C9493000C9493000C94930004
:100030000C9493000C9493000C9493000C949300F4
:100040000C9493000C9493000C9493000C949300E4
:100050000C9493000C9493000C9493000C949300D4
:100060000C9493000C9493000C9493000C949300C4
:100070000C9493000C9493000C9493000C949300B4
:100080000C9493000C9493000C9493000C949300A4
:100090000C9493000C9493000C9493000C94930094
:1000A0000C9493000C9493000C9493000C94930084
:1000B0000C9493000C9493000C9493000C94930074
:1000C0000C9493000C9493000C9493000C94930064
:1000D0000C9493000C9493000C9493000C94930054
:1000E0000C94930011241FBECFEFD1E2DEBFCDBF31
:1000F00000E00CBF12E0A0E0B2E0E2E6F6E000E0D3
:100100000BBF02C007900D92A23BB107D9F722E0C6
:10011000A2EBB2E001C01D92AE3BB207E1F70E9434
:1001200043020C942F030C940000CF93DF93D82F3D
:10013000C62F0E94B70184EB0E94C0018D2F0E9440
:10014000C0018C2F0E94C001DF91CF910C94BC01A3
:10015000CF93C82F0E94B70184EB0E94C0018C2F5F
:100160000E94C0010E94B70185EB0E94C0010E945D
:10017000CF01C82F0E94BC018C2FCF91089580E041
:100180000C94A800CF93DF930F92CDB7DEB70E94F7
:10019000BF008983898183FB882780F90F90DF91D5
:1001A000CF910895FF920F931F93CF93DF930F92F8
:1001B000CDB7DEB79093BD028093BC0260EA76E8CB
:1001C00081E090E00E94880180E20E94A80001E0A6
:1001D000813809F04CC00E94BF008983898102E008
:1001E00084FF45C00E94B70184EB0E94C00184EFE8
:1001F0000E94C0010E94BC012FEF41EE84E021501B
:1002000040408040E1F700C00000E091BC02F09166
:10021000BD02808120E1829FC0011124228148E03B
:10022000249F90011124822B138194E0199F900147
:100230001124182F122BF12C00E0612F81E00E9475
:1002400095002FEF49E688E1215040408040E1F7DA
:1002500000C0000081E00E94A800181741F099E05A
:10026000F91201C003E0F3942AE0F212E6CF802FE6
:100270000F90DF91CF911F910F91FF9008950F93F1
:100280001F93CF93DF93D82FC62F0E94B70184EB23
:100290000E94C0018D2F0E94C0010E94B70185EB12
:1002A0000E94C00102EB12E0D0E0CE54DD4F0C17EB
:1002B0001D0731F4DF91CF911F910F910C94BC0178
:1002C0000E94C701F80181938F01F1CF64E082E0C1
:1002D0000E943F018091B50290E00895CF93C82F0E
:1002E0000E94B70184EB0E94C0018C2F0E94C001C4
:1002F0000E94B70185EB0E94C0010E94C701C82F70
:100300000E94CF019C2FCF91089582E00C946E0142
:10031000CF93DF9300D00F92CDB7DEB769837A8396
:100320008B839C8360E074E284EF90E029813A81C2
:100330004B815C810E940D03205131094109510913
:1003400056954795379527952093B800ECEBF0E04C
:100350008081846080830F900F900F900F90DF91C9
:10036000CF9108958091BC0087FFFCCF089584EA67
:100370008093BC000C94B20184E98093BC00089582
:100380008093BB0084E88093BC000C94B20184ECA1
:100390008093BC000E94B2018091BB00089584E864
:1003A0008093BC000E94B2018091BB0008951F930E
:1003B000CF93DF93182FD92FC62F84E092E00E94AD
:1003C0008202812F9D2F0E94820286E092E0C1303E
:1003D00091F08FE092E0C23071F089E192E0C33099
:1003E00051F08BE292E0C43031F087E392E0C53007
:1003F00011F081E492E0DF91CF911F910C94820281
:10040000CF93DF93D42FC52F0E94D7018D2F9C2F20
:10041000DF91CF910C9482020E94710247E552E075
:1004200061E08EE692E00C9400021F93CF93DF937D
:10043000142FD52FC22F0E94D701812F9D2F0E94EC
:10044000820285E392E00E9482028C2FDF91CF919D
:100450001F910C9495020F931F93CF93DF938A0102
:10046000D22FC32F0E94D701C8010E94820285E3C8
:1004700092E00E9482028D2F9C2FDF91CF911F91DD
:100480000F910C94AE020E940C0280E092E00E9458
:10049000D200282F49E752E065E082E992E00E940D
:1004A00015020E94C2008823E1F30E9485019C018D
:1004B00047E952E062E082E992E00E942B020E944A
:1004C00066019C0144EA52E062E082E992E00E9407
:1004D0002B02E7CF9091C00095FFFCCF8093C60020
:1004E00008951092C50087E68093C400E0ECF0E028
:1004F00080818D7F808388E18093C10086E0809336
:10050000C20008951F93CF93DF93EC0110E0FE012A
:10051000E10FF11D8081811104C0DF91CF911F9106
:1005200008950E946A021F5FF2CFCF93C82F64E63E
:100530000E94ED02805D0E946A022AE08C2F622FE9
:100540000E94ED02C92F0E94ED0280E3890F0E94F4
:100550006A0280E38C0FCF910C946A020F931F9371
:10056000CF93DF93D82FC92F60E177E20E94F90281
:1005700080E3860F0E946A028D2F9C2F68EE73E045
:100580000E94F902CB010AE010E0B8010E94F902D2
:10059000805D0E946A028D2F9C2F64E670E00E94AD
:1005A000F902CB01B8010E94F902805D0E946A0243
:1005B0008D2F9C2FB8010E94F902C82FCB01B801E2
:1005C0000E94F902805D0E946A0280E38C0FDF9135
:1005D000CF911F910F910C946A02991B79E004C08E
:1005E000991F961708F0961B881F7A95C9F7809572
:1005F0000895AA1BBB1B51E107C0AA1FBB1FA6176A
:10060000B70710F0A61BB70B881F991F5A95A9F7BB
:1006100080959095BC01CD010895A1E21A2EAA1BE8
:10062000BB1BFD010DC0AA1FBB1FEE1FFF1FA217A2
:10063000B307E407F50720F0A21BB30BE40BF50B9F
:10064000661F771F881F991F1A9469F76095709528
:10065000809590959B01AC01BD01CF010895F89460
:02066000FFCFCA
:10066200010100000A002C20494E464F3A20002C7E
:100672002044454255473A20002C20564552424FCD
:1006820053455F44454255473A20002C205741527A
:100692004E494E473A20002C204552524F523A20A2
:1006A200002C20494E56414C49445F4C4F475F4C09
:1006B2004556454C3A20004C6F6720737973746538
:1006C2006D20696E697469616C69736564006C6F31
:1006D200675F73797374656D0043435338312069E2
:1006E2006E69742072657475726E20636F64653A08
:1006F20020004D41494E0065436F32204C657665BE
:100702006C3A20006554564F43204C6576656C3A2E
:020712002000C5
:00000001FF
