:100000000C9434000C943E000C943E000C943E0082
:100010000C943E000C943E000C943E000C943E0068
:100020000C943E000C943E000C943E000C943E0058
:100030000C943E000C943E000C943E000C943E0048
:100040000C943E000C943E000C943E000C943E0038
:100050000C943E000C943E000C943E000C943E0028
:100060000C943E000C943E0011241FBECFEFD8E04C
:10007000DEBFCDBF0E9457000C945C000C940000C2
:10008000209A0895289A2FEF89E698E12150804020
:100090009040E1F700C0000028982FEF89E698E132
:1000A000215080409040E1F700C0000008950E9478
:0C00B00040000E944200FDCFF894FFCFFA
:00000001FF
